{
  "contractName": "Notary",
  "abi": [
    {
      "inputs": [],
      "payable": false,
      "stateMutability": "nonpayable",
      "type": "constructor"
    },
    {
      "constant": false,
      "inputs": [
        {
          "internalType": "bytes32",
          "name": "hash",
          "type": "bytes32"
        }
      ],
      "name": "addDocHash",
      "outputs": [],
      "payable": false,
      "stateMutability": "nonpayable",
      "type": "function"
    },
    {
      "constant": true,
      "inputs": [
        {
          "internalType": "bytes32",
          "name": "hash",
          "type": "bytes32"
        }
      ],
      "name": "findDocHash",
      "outputs": [
        {
          "internalType": "uint256",
          "name": "",
          "type": "uint256"
        },
        {
          "internalType": "uint256",
          "name": "",
          "type": "uint256"
        }
      ],
      "payable": false,
      "stateMutability": "view",
      "type": "function"
    }
  ],
  "bytecode": "0x608060405234801561001057600080fd5b50610186806100206000396000f3fe608060405234801561001057600080fd5b50600436106100365760003560e01c8063133a48f31461003b5780634cf00d3f14610069575b600080fd5b6100676004803603602081101561005157600080fd5b81019080803590602001909291905050506100b2565b005b6100956004803603602081101561007f57600080fd5b81019080803590602001909291905050506100ff565b604051808381526020018281526020019250505060405180910390f35b6100ba610137565b60405180604001604052804281526020014381525090508060008084815260200190815260200160002060008201518160000155602082015181600101559050505050565b600080600080848152602001908152602001600020600001546000808581526020019081526020016000206001015491509150915091565b60405180604001604052806000815260200160008152509056fea265627a7a7231582016713d42cabf819fbcd89d18a9187a1ed65a20483e972e3ff63351c1b5f1cb9f64736f6c634300050c0032",
  "source": "pragma solidity ^0.5.0;\n\n\ncontract Notary {\n\tstruct Record {\n\t\tuint mineTime;\n\t\tuint blockNumber;\n\t}\n\n\tmapping(bytes32 => Record) private docHashes;\n\n  \tconstructor() public {\n  \t}\n\n  \tfunction addDocHash (bytes32 hash) public {\n  \t\tRecord memory newRecord = Record(now, block.number);\n  \t\tdocHashes[hash] = newRecord;\n  \t}\n\n  \tfunction findDocHash (bytes32 hash) public view returns(uint, uint) {\n  \t\treturn (docHashes[hash].mineTime, docHashes[hash].blockNumber);\n  \t}\n}\n",
  "sourcePath": "C:/Users/TalentDevGuru/Documents/T_Blockchain_Ethereum_DC/contracts/Notary.sol",
  "compiler": {
    "name": "solc",
    "version": "0.5.12+commit.7709ece9.Emscripten.clang"
  },
  "schemaVersion": "3.0.18",
  "updatedAt": "2019-11-12T01:35:24.964Z",
  "devdoc": {
    "methods": {}
  },
  "userdoc": {
    "methods": {}
  }
}